:020000040000FA
:060000004AEF1FF01200A0
:061000004AEF1FF0120090
:081008009EA22AEF1CF09E924B
:0610100017EF08F01200CA
:021016001200C6
:061018002AEF1CF012009B
:0E1020000100B03E0000AC0100000400000022
:02102E0042700E
:1010300042A011005B3E04D05C5005E08B8C05D0D3
:101040005C505B6402D05C3C8B9C82BAFED782AA67
:10105000FED78B8282BAFED782AAFED7000000009C
:101060008B9242AC11000000439E000082BE438E72
:10107000000000000000000000000000439C000091
:1010800082BE438C00000000000000000000000051
:10109000439A000082BE438A000000000000000066
:1010A000000000004398000082BE4388000000005A
:1010B00000000000000000004396000082BE43864E
:1010C0000000000000000000000000004394000049
:1010D00082BE438400000000000000000000000009
:1010E0004392000082BE4382000000000000000026
:1010F000000000004390000082BE43800000446A6C
:10110000456A466A43AE03D04468456846680001B4
:101110004D50516E4E50526E4F50536E5050546E53
:1011200049504D6E556E4A504E6E566E4B504F6E36
:10113000576E4C50506E586E50AE0BD0551E561E0A
:10114000571E581E552AD8B4562AD8B4572AD8B490
:10115000582A55504702F350006FF450016F575012
:101160004702F350026FF450036F58504802F35097
:10117000046FF450056F56504702F3500127F450A6
:101180000223E86A03230423052358504702F3503F
:101190000327F4500423E86A052355504802F3500E
:1011A0000127F4500223E86A032304230523565041
:1011B0004802F3500227F4500323E86A042305236E
:1011C00057504802F3500327F4500423E86A0523DC
:1011D000D8900037013702370337043705370551F8
:1011E0004C6E04514B6E03514A6E0251496E50AE23
:1011F0000BD0491E4A1E4B1E4C1E492AD8B44A2AFF
:10120000D8B44B2AD8B44C2A5150495E52504A5A4D
:1012100053504B5A54504C5A4350492644504A223A
:1012200045504B2246504C224006000E415A405039
:10123000411003E1428A429C0000000011001200AC
:10124000D9CFE6FFE1CFD9FFE652FD0EDBCF00F0AC
:10125000FE0EDBCF01F02C0E005E010E015A640E73
:10126000396E3A6A00C034F001C035F029EC1BF049
:1012700034C000F035C001F00050DF6EF76ADF3493
:10128000FE0BF736F66E840EF6263C0EF7220900AA
:10129000F5CF47F00A00F5CF48F0DF50040DF3CF4B
:1012A000F6FFF4CFF7FF180EF6263B0EF7220900E3
:1012B000F5CF0EF10900F5CF0FF10900F5CF10F1D0
:1012C0000800F5CF11F1496A4A6A4B6A4C6A4D6AC7
:1012D0004E6A4F6A506A516A526A536A546AE552BA
:1012E000E552E7CFD9FF1200AC6AAB6AB86AAC84AA
:1012F000190EAF6EAB8EAC8A1200D9CFE6FFE1CFEC
:10130000D9FFFE0EDB50A96EA69EA69CA680A85013
:1013100000D0E552E7CFD9FF1200D9CFE6FFE1CFE9
:10132000D9FFFD0EDB50A96EFE0EDB50A86EA69E07
:10133000A69CA684F29E550EA76EAA0EA76EA68244
:10134000A6B2FED7A694F28EE552E7CFD9FF1200DF
:10135000D9CFE6FFE1CFD9FF020EE126FD0EDBCFAC
:1013600000F0FE0EDBCF01F001C000F0016A00507A
:10137000DF6EFF0EE76EFD0EDBCF00F0FE0EDBCF63
:1013800001F0E7500016016A010E00C0DBFFFC0E01
:10139000DBCFE6FFDFCFE6FFC0DFE552E552FC0E14
:1013A000DB28E66E010EDBCFE6FFB7DFE552E55244
:1013B000020EE15C02E2E16AE552E16EE552E7CF3E
:1013C000D9FF1200D9CFE6FFE1CFD9FF020EE12607
:1013D000FE0EDBCFE6FF91DFE552DF6EFE0EDB286F
:1013E000E66E8BDFE552E76E010EE7CFDBFFDF50E5
:1013F000026E036A02C003F0026A010EDB500001B4
:101400000224006E000E0320016E00C0F3FF01C035
:10141000F4FF020EE15C03E200D0E16AE552E16E06
:10142000E552E7CFD9FF1200D9CFE6FFE1CFD9FFD0
:101430009EB802D0FDD7FCD7FE0EDB50AD6EE55254
:10144000E7CFD9FF12000D0EE66EEEDFE5520A0E71
:10145000E66EEADFE5521200D9CFE6FFE1CFD9FF11
:10146000FE0EDB50090804E2FE0EDB50370F04D0FD
:10147000FE0EDB50300F00D0E552E7CFD9FF12004F
:10148000D9CFE6FFE1CFD9FFFE0EDB380F0B0F0BF4
:1014900001011A6FFE0EDB500F0B1B6F1AC1E6FF26
:1014A000DBDFE552E66EC0DFE5521BC1E6FFD4DFAD
:1014B000E552E66EB9DFE552E552E7CFD9FF1200FB
:1014C000D9CFE6FFE1CFD9FFFD0EDBCF00F0FE0E56
:1014D000DBCF01F001C000F0016A0050E66ED0DF02
:1014E000E552FF0EE76EFD0EDBCF00F0FE0EDBCF08
:1014F00001F0E7500016016A0050E66EC1DFE552C8
:10150000200EE66E91DFE552E552E7CFD9FF1200DB
:10151000D9CFE6FFE1CFD9FF040EE126010EDB6A49
:10152000020EDB6A030EDB6AD950FD0FE96EFF0E77
:10153000DA20EA6EEE50ED1005E1300EE66E74DF53
:10154000E552C5D0FD0EDBCF00F0FE0EDBCF01F083
:101550000001800E011413E1FD0EDBCF00F0FE0E42
:10156000DBCF01F0640E005E000E015AFD0E00C0DC
:10157000DBFFFE0E01C0DBFF010EDB2AE3D7640EAA
:10158000E76EFD0EDBCF00F0FE0EDBCF01F0E75083
:101590000026000E0122FD0E00C0DBFFFE0E01C082
:1015A000DBFF010EDB06FD0EDBCF00F0FE0EDBCF16
:1015B00001F0800E011413E1FD0EDBCF00F0FE0EF2
:1015C000DBCF01F00A0E005E000E015AFD0E00C0D6
:1015D000DBFFFE0E01C0DBFF020EDB2AE4D70A0EA2
:1015E000E76EFD0EDBCF00F0FE0EDBCF01F0E75023
:1015F0000026000E0122FD0E00C0DBFFFE0E01C022
:10160000DBFF020EDB06FD0EDBCF00F0FE0EDBCFB4
:1016100001F0800E011412E1FD0EDBCF00F0FE0E92
:10162000DBCF01F00006000E015AFD0E00C0DBFF0B
:10163000FE0E01C0DBFF030EDB2AE5D7010EE76ECD
:10164000FD0EDBCF00F0FE0EDBCF01F0E7500026F1
:10165000000E0122FD0E00C0DBFFFE0E01C0DBFF0D
:10166000030EDB06DF6A030EDF5C31E2D950010FA7
:10167000026EDACF03F0DF500F010224E96E000E94
:101680000320EA6EEF50E66EE7DEE552E66ED950D3
:10169000010F006EDACF01F0DF500F010024E96E78
:1016A000000E0120EA6EE552E750EF6ED950010FAF
:1016B000006EDACF01F0DF500024E96E000E012049
:1016C000EA6EEF50E66EB0DEE552DF2ACCD7040EAC
:1016D000E15C02E2E16AE552E16EE552E7CFD9FF53
:1016E00012000101010E9F6F020EE66EE66A0BEC1E
:1016F00015F0E552E5528B84948482B40DD0440EEB
:10170000E66E92DEE552C2EC16F00EEC18F082B4F2
:1017100002D0FDD7FCD700D094941200D9CFE6FFB9
:10172000E1CFD9FF040EE12601016E5103E1F36A16
:10173000F46AECD1D950FD0FE96EFF0EDA20EA6EA3
:10174000FF0EEE1802E1FF0EED1803E1F36AF46AF2
:10175000DDD1D950FD0FE96EFF0EDA20EA6EEE50B2
:10176000ED1003E1F36AF46AD1D1FD0EDBCF00F096
:10177000FE0EDBCF01F0D890015004E62C0E005C89
:10178000010E015803E2F36AF46AC0D1FD0EDBCF0B
:1017900000F0FE0EDBCF01F0013404E200505408EB
:1017A000240E015403E2F36AF46AB0D1FD0EDBCFDC
:1017B000E6FFFE0EDBCFE6FF43DDE552E552429A3F
:1017C00006C140F007C141F0428C9D9042BA02D060
:1017D000FDD7FCD7429C9D804DC032F04EC033F007
:1017E0004FC034F050C035F00CEC1AF033C008F0A4
:1017F00034C009F035C00AF036C00BF04DC032F0ED
:101800004EC033F04FC034F050C035F00CEC1AF03D
:1018100033C00CF034C00DF035C00EF036C00FF000
:101820000CC038F00DC039F00EC03AF00FC03BF0DC
:1018300008C033F009C034F00AC035F00BC036F0F0
:10184000BCEC1AF033C004F034C005F035C006F02B
:1018500036C007F051C032F052C033F053C034F0FC
:1018600054C035F00CEC1AF033C014F034C015F04D
:1018700035C016F036C017F051C032F052C033F008
:1018800053C034F054C035F00CEC1AF033C018F0EB
:1018900034C019F035C01AF036C01BF018C038F04B
:1018A00019C039F01AC03AF01BC03BF014C033F035
:1018B00015C034F016C035F017C036F0BCEC1AF085
:1018C00033C010F034C011F035C012F036C013F040
:1018D00010C038F011C039F012C03AF013C03BF01C
:1018E00004C033F005C034F006C035F007C036F050
:1018F00026EC1AF033C000F034C001F035C002F01D
:1019000036C003F04DC032F04EC033F04FC034F05B
:1019100050C035F00CEC1AF033C024F034C025F080
:1019200035C026F036C027F051C032F052C033F037
:1019300053C034F054C035F00CEC1AF033C028F02A
:1019400034C029F035C02AF036C02BF028C038F05A
:1019500029C039F02AC03AF02BC03BF024C033F044
:1019600025C034F026C035F027C036F0BCEC1AF0A4
:1019700033C020F034C021F035C022F036C023F04F
:101980000EC138F00FC139F010C13AF011C13BF06F
:1019900020C033F021C034F022C035F023C036F02F
:1019A000BCEC1AF033C01CF034C01DF035C01EF082
:1019B00036C01FF01CC038F01DC039F01EC03AF010
:1019C0001FC03BF000C033F001C034F002C035F05E
:1019D00003C036F025EC1AF033C00AF134C00BF125
:1019E00035C00CF136C00DF10AC133F00BC134F033
:1019F0000CC135F00DC136F06DEC1BF032C0DEFFCE
:101A000033C0DEFF34C0DEFF35C0DDFFDD52DD5206
:101A1000D9CFE9FFDACFEAFFEECF00F0EECF01F049
:101A2000EECF02F0EFCF03F00C0ED890033202326B
:101A300001320032E806F9E100C0DFFF010E01C00B
:101A4000DBFF020E02C0DBFF030E03C0DBFFFD0E57
:101A5000DBCF04F0FE0EDBCF05F0B00E0426040E43
:101A60000522066A076A05AE02D00668076804C048
:101A700032F005C033F006C034F007C035F0DFCFD8
:101A800037F0010EDBCF38F0020EDBCF39F0030E5A
:101A9000DBCF3AF0ECEC1EF02EC000F02FC001F0CE
:101AA00030C002F031C003F00B0ED8900332023286
:101AB00001320032E806F9E100C0DFFF010E01C08B
:101AC000DBFF020E02C0DBFF030E03C0DBFFD9CF3A
:101AD000E9FFDACFEAFFD880C80EEE54000EEE54CC
:101AE000000EEE54000EEE5407E2C80EDE6EDE6A03
:101AF000DE6ADD6ADD52DD52DFCF00F0010EDBCFA2
:101B000001F000C0F3FF01C0F4FF00D0040EE15C5F
:101B100002E2E16AE552E16EE552E7CFD9FF120039
:101B2000200EE66E4FDCE552F3CF68F1F4CF69F199
:101B3000220EE66E47DCE552F3CF6AF1F4CF6BF18B
:101B4000240EE66E3FDCE552F3CF6CF1F4CF6DF17D
:101B5000080EE66E37DCE552F3CF66F1F4CF67F19D
:101B6000100EE66E2FDCE552F3CF12F1F4CF13F135
:101B7000120EE66E27DCE552F3CF14F1F4CF15F127
:101B8000140EE66E1FDCE552F3CF16F1F4CF17F119
:101B90000C0EE66E17DCE552F3CF84F1F4CF85F13D
:101BA0000E0EE66E0FDCE552F3CF86F1F4CF87F12F
:101BB0001200D9CFE6FFE1CFD9FFB2DF0101681DE6
:101BC00001E1691D0EE1200EE66EFD0EDBCFE6FFA2
:101BD000FE0EDBCFE6FFA8EC09F0E552E552E55238
:101BE00024D06A1D01E16B1D0EE1220EE66EFD0E92
:101BF000DBCFE6FFFE0EDBCFE6FFA8EC09F0E552F7
:101C0000E552E55212D06C1D01E16D1D0EE1240E6E
:101C1000E66EFD0EDBCFE6FFFE0EDBCFE6FFA8ECA7
:101C200009F0E552E552E55200D0E552E7CFD9FF81
:101C30001200D9CFE6FFE1CFD9FF72DFFD0EDBCF77
:101C400000F0FE0EDBCF01F001016851001802E147
:101C50006951011813E1200EE66EE668E668A8EC0B
:101C600009F0E552E552E552100EE66EE668E668C8
:101C7000A8EC09F0E552E552E5523ED0FD0EDBCF6F
:101C800000F0FE0EDBCF01F06A51001802E16B514B
:101C9000011813E1220EE66EE668E668A8EC09F08A
:101CA000E552E552E552120EE66EE668E668A8ECEB
:101CB00009F0E552E552E5521FD0FD0EDBCF00F0F2
:101CC000FE0EDBCF01F06C51001802E16D510118DE
:101CD00013E1240EE66EE668E668A8EC09F0E5522A
:101CE000E552E552140EE66EE668E668A8EC09F0E7
:101CF000E552E552E55200D0E552E7CFD9FF120098
:101D0000D9CFE6FFE1CFD9FF0BDFFD0EDBCF00F02F
:101D1000FE0EDBCF01F001016851001802E16951AC
:101D200001180EE1100EE66EFB0EDBCFE6FFFC0E97
:101D3000DBCFE6FFA8EC09F0E552E552E55234D0DE
:101D4000FD0EDBCF00F0FE0EDBCF01F06A51001874
:101D500002E16B5101180EE1120EE66EFB0EDBCFB5
:101D6000E6FFFC0EDBCFE6FFA8EC09F0E552E552FA
:101D7000E5521AD0FD0EDBCF00F0FE0EDBCF01F0F6
:101D80006C51001802E16D5101180EE1140EE66E5F
:101D9000FB0EDBCFE6FFFC0EDBCFE6FFA8EC09F085
:101DA000E552E552E55200D0E552E7CFD9FF1200E7
:101DB0001200010160C178F1796BFF0E7817000EF7
:101DC00079170A0E7903F3CF79F17803F3CF78F11D
:101DD000F4507927FF0E5F157A6F7B6B0A0E7B0339
:101DE000F3CF7BF17A03F3CF7AF1F4507B27440EE3
:101DF000E66E14EC0AF0E5523D0EE66E14EC0AF0C5
:101E0000E55278C1E6FF79C1E6FF60EC0AF0E552E1
:101E1000E5527AC1E6FF7BC1E6FF60EC0AF0E552CD
:101E2000E552120001018E6B8F6B826B836B7E6BB0
:101E30007F6B8C6B8D6B806B816B7C6B7D6B5D6A5C
:101E40005E6A1200D9CFE6FFE1CFD9FFD950FD0F6E
:101E5000E96EFF0EDA20EA6EEE50ED1007E1010E9A
:101E6000F36EFD0EF3CFDBFFFE0EDB6AFD0EDBCF64
:101E700092F1FE0EDBCF93F1010193C192F1936BCE
:101E8000346A010E356EFD0EDBCF39F0FE0EDBCF6E
:101E90003AF024EC1FF034C094F135C095F192C1B2
:101EA00090F193C191F1FD0EDBCF00F0FE0EDBCF80
:101EB00001F000C0F3FF01C0F4FF00D0E552E7CF0E
:101EC000D9FF1200D9CFE6FFE1CFD9FFFD0EDBCF5E
:101ED00088F1FE0EDBCF89F1FD0EDBCFE6FFFE0EB3
:101EE000DBCFE6FFAFDFE552E552F3CF8EF1F4CF63
:101EF0008FF1E552E7CFD9FF1200D9CFE6FFE1CF4E
:101F0000D9FFFD0EDBCF8AF1FE0EDBCF8BF1FD0E8C
:101F1000DBCFE6FFFE0EDBCFE6FF94DFE552E552B6
:101F2000F3CF8CF1F4CF8DF1E552E7CFD9FF12005A
:101F3000D9CFE6FFE1CFD9FF010EE66EE66ADDDF1D
:101F4000E552E5520A0EE66EE66A0BEC15F0E55234
:101F5000E5525D6A5E6AFE0EDB500101756F766BBD
:101F600061DF010E0101966F976B23DFE552E7CF2A
:101F7000D9FF12008CEC18F0060E0101655D01E03E
:101F80001AD1CEDD010166515D1902E167515E197A
:101F900015E15C0507E15FC1E6FF60C1E6FF09DE10
:101FA000E552E552020E01015C5D07E15FC1E6FF0B
:101FB00060C1E6FF3EDEE552E552FADE01015D1D3D
:101FC00001E15E1D19E066515D1902E167515E197C
:101FD00013E068515D1902E169515E190DE06A5123
:101FE0005D1902E16B515E1907E06C515D1902E168
:101FF0006D515E1901E0DFD05C51110A01E1D1D0D1
:10200000010A01E1C9D01F0A01E1C1D0010A01E1C1
:10201000B9D0030A01E1B1D0010A01E19ED0070A5B
:1020200001E187D0010A01E17BD0030A71E0010AD6
:1020300064E00F0A54E0010A44E0030A32E0010AB6
:102040001DE0070A0AE0010A07E0030A04E0010AAA
:1020500001E0B1D0B0D0AFD0AED06E6BE3DE0A0EEF
:10206000346E356A5FC139F060C13AF04FEC1BF055
:1020700032C05DF033C05EF05C689DD06E6B0A0EBE
:10208000346E356A5FC139F060C13AF04FEC1BF035
:1020900032C05DF033C05EF05D505E1001E15C6AFD
:1020A0008AD05FC1E6FF60C1E6FF5DC1E6FF5EC1A9
:1020B000E6FF26DEE552E552E552E55231DD78DEF7
:1020C0007AD00C0EE66E5FC1E6FF60C1E6FFA8ECB9
:1020D00009F0E552E552E55223DD6ADE6CD00E0EC2
:1020E000E66E5FC1E6FF60C1E6FFA8EC09F0E552CD
:1020F000E552E55215DD5CDE5ED05FC1E6FF60C1F2
:10210000E6FF7FEC16F0E552E5520ADD51DE53D0D2
:10211000010E6E6FE66EE66AF0DEE552E5524BD0D8
:102120006E6B80DE010EE66EE66AE7DEE552E55292
:1021300042D0010E6F6F706B3CDE74DE010EE66EF6
:10214000E66ADBDEE552E55278C171F179C172F1E0
:102150007AC173F17BC174F12ED06F6B706B62DE4C
:10216000010EE66EE66AC9DEE552E552010E010196
:10217000716F726B736F746B1ED0010EE66ED8DEDA
:10218000E55219D0020EE66ED3DEE55214D0030EEE
:10219000E66ECEDEE5520FD0040EE66EC9DEE552E5
:1021A0000AD0756B766B3EDE010EE66EE66AA5DE42
:1021B000E552E55200D00101656B5C6B5D6B5E6BB7
:1021C00012006D0E376E4E0E386EC60E396E410E11
:1021D0003A6EACC132F0ADC133F0AEC134F0AFC134
:1021E00035F0ECEC1EF02EC0ACF12FC0ADF130C0DC
:1021F000AEF131C0AFF1390E0101AC27300EAD2385
:10220000000EAE23AF23AEC100F0AFC101F000015C
:10221000026A036A005000D01200D9CFE6FFE1CF76
:10222000D9FF040EE126CDDF026E036A02C034F04E
:1022300003C035F0FD0EDBCF39F0FE0EDBCF3AF0F8
:102240004FEC1BF032C000F033C001F0000E00C0B4
:10225000DFFF010E01C0DBFF020EDB6A030EDB6A4B
:10226000D9CFE9FFDACFEAFFEECF04F0EECF05F0E9
:10227000EECF06F0EFCF07F005C000F006C001F08A
:1022800007C002F00001036A0A0E0026000E0122B8
:10229000022203220A0E376E386A396A3A6A00C08F
:1022A00032F001C033F002C034F003C035F0ECEC82
:1022B0001EF02EC000F02FC001F030C002F031C07F
:1022C00003F000C0DFFF010E01C0DBFF020E02C001
:1022D000DBFF030E03C0DBFFDFCF00F0010EDBCF1F
:1022E00001F000C0F3FF01C0F4FF040EE15C03E263
:1022F00000D0E16AE552E16EE552E7CFD9FF120066
:10230000D9CFE6FFE1CFD9FF220EE1267E6A7F6AB0
:1023100093688A68429E429C5C6A01018E6B8F6B57
:102320008C6B8D6B800E946E850ECD6ED10ECF6E44
:10233000200ECE6E9F809D807C0ECA6E0F0EBD6EED
:10234000010EB96E090ECB6EB66A800EB76E050E21
:10235000BE6E9F829D82640E9E6F9F6FF28CD08EA8
:10236000F28E74EC09F023EC0AF0560EE66E14ECD3
:102370000AF0E552330EE66E14EC0AF0E5522E0E2A
:10238000E66E14EC0AF0E552300EE66E14EC0AF03C
:10239000E55223EC0AF0490EE66E14EC0AF0E55221
:1023A0004DDB520EE66E14EC0AF0E55264DB640E6F
:1023B000E66EE66A30DBE552E552500EE66E14EC4E
:1023C0000AF0E552D2EC16F0640EE66EE66A23DB04
:1023D000E552E552530EE66E14EC0AF0E55266EC57
:1023E00016F0640EE66EE66A16DBE552E552540E10
:1023F000E66E14EC0AF0E5520A0EE66EE2EC09F025
:10240000E552F3CF00F0F4CF01F000C0E6FF01C0C9
:10241000E6FF010EE66EE66ADFEC19F0E552E552E2
:10242000E552E552080EF3CFDBFF090EF4CFDBFFD8
:1024300023EC0AF0440EE66E14EC0AF0E552DCECF4
:1024400017F0520EE66E14EC0AF0E5527FEC18F02D
:10245000C80EE66EE66ADFDAE552E5528B9C429AD8
:10246000429C429E0101986B996B6E6B756B766B0B
:102470001C0EE66EE2EC09F0E552F3CF5FF1F4CF0B
:1024800060F1040EE66E7DEC09F0E55201019D6FEE
:10249000030EE66E7DEC09F0E552070A2AE0010A18
:1024A00024E0030A1DE0010A16E0070A0FE0010A12
:1024B00008E0030A01E020D0010EE66E39DDE552A6
:1024C0001BD0020EE66E34DDE55216D0030EE66E2A
:1024D0002FDDE55211D0040EE66E2ADDE5520CD058
:1024E000010E0101986F996B07D00101010E6E6F0B
:1024F00003D001016E6B00D090EC0DF0FF0E0101D6
:1025000066250101AC6F150E010167210101AD6F58
:10251000AE6BAF6B4EDC78C171F179C172F17AC1EB
:1025200073F17BC174F144DC5C68E80E5D6E030EF0
:102530005E6ED00EE66E070EE66E6DDAE552E5527F
:1025400023EC0AF0DF2A010E01E3DB2A0101985196
:1025500099112EE069EC17F001019A519B03F3CF1A
:102560009CF19D0513E19C51845D000E855902E2AA
:102570005C680CD08651845D006E85518755016E74
:1025800000509C5D000E015401E25C6A020E9D5DEC
:102590000EE19C51006E016A013404E20050FF0814
:1025A000000E015402E25C6802D09CC15CF017D0BE
:1025B000DECF00F0DDCF01F0F40E396E010E3A6E81
:1025C00000C034F001C035F029EC1BF030C000F041
:1025D00031C001F00050011002E169EC17F0010177
:1025E0007551761101E1D7D0010E751901E17651CF
:1025F00017E19651971114E078C17EF179C17FF10E
:102600007AC17CF17BC17DF1010E8A6F8B6B886F83
:10261000896B88C1E6FF89C1E6FF54DCE552E552CB
:102620000101020E751901E1765134E196519711BD
:1026300031E0010E7E6F7F6B0A0E346E356A7AC10F
:1026400039F07BC13AF04FEC1BF032C07CF133C063
:102650007DF10A0E346E356A78C139F079C13AF0ED
:102660004FEC1BF032C08AF133C08BF10A0E346E8E
:10267000356A78C139F079C13AF04FEC1BF032C0BD
:1026800088F133C089F188C1E6FF89C1E6FF1ADC11
:10269000E552E5520101030E751901E1765127E17A
:1026A0009651971124E078C1E6FF79C1E6FFB5DDC8
:1026B000E552E552F3CF7EF1F4CF7FF17AC1E6FF28
:1026C0007BC1E6FFAADDE552E552F3CF7CF1F4CF02
:1026D0007DF1010E01018A6F8B6B886F896B88C158
:1026E000E6FF89C1E6FF62EC0FF0E552E552010119
:1026F000040E751901E176514DE1965197114AE0AA
:1027000078C1E6FF79C1E6FF88DDE552E552040EA7
:10271000F3CFDBFF050EF4CFDBFF010E01017E6F6F
:102720007F6B7AC1E6FF7BC1E6FF77DDE552E552BC
:10273000F3CF7CF1F4CF7DF1040EDBCF88F1050EF1
:10274000DBCF89F1020E396E3A6A88C134F089C153
:1027500035F029EC1BF034C088F135C089F1040E46
:10276000DBCF8AF1050EDBCF8BF1020E396E3A6AB0
:102770008AC134F08BC135F029EC1BF034C08AF1EA
:1027800035C08BF188C1E6FF89C1E6FF62EC0FF02E
:10279000E552E55225D1F40E066F010E076F6E511A
:1027A00001E11ED1DECF00F0DDCF01F0030E396E66
:1027B0003A6A00C034F001C035F029EC1BF030C09B
:1027C00000F031C001F00050011003E10101030EDF
:1027D0009F6F12C1E6FF13C1E6FF8EEC0BF0E552CE
:1027E000E552F3CF00F0F4CF01F00A0E00C0DBFF9A
:1027F0000B0E01C0DBFF0C0EDB6A0D0EDB6A14C191
:10280000E6FF15C1E6FF8EEC0BF0E552E552F3CF83
:1028100000F0F4CF01F00E0E00C0DBFF0F0E01C080
:10282000DBFF100EDB6A110EDB6A16C1E6FF17C173
:10283000E6FF8EEC0BF0E552E552F3CF00F0F4CF5B
:1028400001F0120E00C0DBFF130E01C0DBFF140EFF
:10285000DB6A150EDB6A84C100F085C101F0026AF3
:10286000036AD9500A0FE96EDACFEAFF030EEBCF05
:10287000F3FF0350F318E8AE02D0F33408D0EE5063
:10288000005CEE500158EE500258EE5003583AE307
:1028900084C104F085C105F0066A076AD9500E0F9D
:1028A000E96EDACFEAFF030EEBCFF3FF0750F31820
:1028B000E8AE02D0F33408D0EE50045CEE50055878
:1028C000EE500658EE5007581DE384C108F085C14C
:1028D00009F00A6A0B6AD950120FE96EDACFEAFFE3
:1028E000030EEBCFF3FF0B50F318E8AE02D0F33436
:1028F00008D0EE50085CEE500958EE500A58EE50E1
:102900000B580CE25C500AE112EC0FF071C1E6FFCB
:1029100072C1E6FF62EC0FF0E552E552010186510B
:10292000845D006E85518755016E026A036AD95035
:102930000A0FE96EDACFEAFF030EEB500318E8AE98
:1029400002D0033408D00050EE5C0150EE58025023
:10295000EE580350EE5844E28651845D046E855172
:102960008755056E066A076AD9500E0FE96EDACFF1
:10297000EAFF030EEB500718E8AE02D0073408D088
:102980000450EE5C0550EE580650EE580750EE58D5
:1029900027E28651845D086E85518755096E0A6A63
:1029A0000B6AD950120FE96EDACFEAFF030EEB5033
:1029B0000B18E8AE02D00B3408D00850EE5C09507A
:1029C000EE580A50EE580B50EE580AE212EC0FF097
:1029D00073C1E6FF74C1E6FF7DEC0FF0E552E552EE
:1029E000BAEC0FF001016E5103E07551761106E06B
:1029F0000A0EE66EE66A0FD8E552E55271EC0BF06E
:102A0000A1D5220EE15C02E2E16AE552E16EE552F7
:102A1000E7CFD9FF1200D9CFE6FFE1CFD9FFFD0EF6
:102A2000DBCF59F0FE0EDBCF5AF059505A1002E0BE
:102A30000400FBD7E552E7CFD9FF1200490EE66E3E
:102A400014EC0AF0E552938C9388C00EC76E380ED2
:102A5000C66EC56A1D0EC86EC69EA1961200A7D886
:102A6000F3CF00F0F4CF01F0800E001801E1015027
:102A700001E0F5D712008B968B90080EE66EE66AA1
:102A8000CADFE552E5528B86080EE66EE66AC3DFC2
:102A9000E552E5528B80080EE66EE66ABCDFE55231
:102AA000E5522FEF15F09E96C5809EA6FED79E9606
:102AB00012009E96C584C5B4FED79E961200D9CF4B
:102AC000E6FFE1CFD9FFFE0EDB50C96E9E969EA6B3
:102AD000FED7C550400B01E0010E006E016A00C038
:102AE000F3FF01C0F4FF00D0E552E7CFD9FF120099
:102AF000C5869E96C5B6FED7C95000D01200D9CF64
:102B0000E6FFE1CFD9FF020EE126640EDE6EDD6A3C
:102B1000C58AC5889E969E50080B0CE1D9CFE9FF67
:102B2000DACFEAFFEE50ED1005E0DF06010E01E21C
:102B3000DB06F1D7D9CFE9FFDACFEAFFEE50ED108F
:102B400000E1020EE15C02E2E16AE552E16EE5526B
:102B5000E7CFD9FF1200D9CFE6FFE1CFD9FF020EB0
:102B6000E126640EDE6EDD6AC59AC5889E969E508B
:102B7000080B0CE1D9CFE9FFDACFEAFFEE50ED10F8
:102B800005E0DF06010E01E2DB06F1D7D9CFE9FF50
:102B9000DACFEAFFEE50ED1000E1020EE15C02E256
:102BA000E16AE552E16EE552E7CFD9FF1200D9CFD5
:102BB000E6FFE1CFD9FF020EE12675DF230EE66EB8
:102BC0007EDFE55295DFDE6EDD6A99DF72DFDECFF4
:102BD00000F0DDCF01F0800E0016000E011600C0DF
:102BE000F3FF01C0F4FF020EE15C03E200D0E16AF2
:102BF000E552E16EE552E7CFD9FF1200D9CFE6FFEB
:102C0000E1CFD9FF040EE126FD0EDBCF00F0FE0E72
:102C1000DBCF01F001C000F0016A0050DF6EFF0E53
:102C2000E76EFD0EDBCF00F0FE0EDBCF01F0E750CC
:102C30000016016A010E00C0DBFFFB0EDBCF00F0C7
:102C4000FC0EDBCF01F001C000F0016AFF0E0016A0
:102C5000000E0116020E00C0DBFFFF0EE76EFB0E3A
:102C6000DBCF00F0FC0EDBCF01F0E7500016016A6D
:102C7000030E00C0DBFF17DF220EE66E20DFE552F9
:102C8000120EE66E1CDFE552E66A19DFE552DFCF71
:102C9000E6FF15DFE552010EDBCFE6FF10DFE55260
:102CA000020EDBCFE6FF0BDFE552030EDBCFE6FFC4
:102CB00006DFE552FEDED3DE040EE15C02E2E16AED
:102CC000E552E16EE552E7CFD9FF1200350EE66E10
:102CD000820EE66E010EE66E020EE66E8FDFE552A4
:102CE000E552E552E552240EE66EE66A020EE66E05
:102CF000E66E84DFE552E552E552E5521200D9CF87
:102D0000E6FFE1CFD9FF020EE126FD0EDBCF00F09A
:102D1000FE0EDBCF01F001C000F0016A0050DF6E53
:102D2000FF0EE76EFD0EDBCF00F0FE0EDBCF01F0F5
:102D3000E7500016016A010E00C0DBFFB4DE220E70
:102D4000E66EBDDEE552200EE66EB9DEE552E66ABD
:102D5000B6DEE552DFCFE6FFB2DEE552010EDBCF95
:102D6000E6FFADDEE552E66AAADEE552A2DE77DED8
:102D7000020EE15C02E2E16AE552E16EE552E7CF64
:102D8000D9FF120090DE220EE66E99DEE552210E8A
:102D9000E66E95DEE552040EE66E91DEE55289DEC2
:102DA0002FEF15F080DE220EE66E89DEE552010E71
:102DB000E66E85DEE552E66A82DEE552B50EE66E27
:102DC0007EDEE55276DE2FEF15F0D9CFE6FFE1CFBC
:102DD000D9FFE65268DE230EE66E71DEE552DF6A49
:102DE000FE0EDB04DF5C0EE283DEE66EDF50EA6A95
:102DF0001C0FE96E010EEA22E552E750EF6EABDEE2
:102E0000DF2AEED775DEE66EFE0EDB04EA6A1C0FE3
:102E1000E96E010EEA22E552E750EF6E70DE49DE00
:102E2000E552E552E7CFD9FF1200D9CFE6FFE1CF57
:102E3000D9FF520EE66E14EC0AF0E552530EE66E20
:102E400014EC0AF0E552530EE66E14EC0AF0E5526B
:102E5000490EE66E14EC0AF0E5523D0EE66E14ECF7
:102E60000AF0E552FE0EDB507F0BE66EE66A88EC58
:102E70000AF0E552E5522C0EE66E14EC0AF0E5522B
:102E8000E552E7CFD9FF1200D9CFE6FFE1CFD9FF56
:102E9000530EE66E14EC0AF0E5524E0EE66E14EC9C
:102EA0000AF0E552520EE66E14EC0AF0E5523D0EC1
:102EB000E66E14EC0AF0E552FE0EDB507F0BE66E78
:102EC000E66A88EC0AF0E552E552E552E7CFD9FF11
:102ED0001200D9CFE6FFE1CFD9FF020EE12623ECA5
:102EE0000AF0520EE66E14EC0AF0E552530EE66E4E
:102EF00014EC0AF0E552510EE66E14EC0AF0E552BD
:102F00003D0EE66E14EC0AF0E552CDDD220EE66EC3
:102F1000D6DDE552230EE66ED2DDE552010EE66EF9
:102F2000CEDDE552C6DD9BDD080EE66E4EDFE552D6
:102F300001011FAF22D0530EE66E14EC0AF0E552E9
:102F4000740EE66E14EC0AF0E5523D0EE66E14ECDB
:102F50000AF0E5527F0E01011F15E66EE66A88EC65
:102F60000AF0E552E552250EE66E14EC0AF0E55241
:102F70002C0EE66E14EC0AF0E55220C1E6FF55DF98
:102F8000E55221C1E6FF80DFE55220C19AF121C15F
:102F90009BF101012051006E016A00C0F3FF01C0E6
:102FA000F4FF020EE15C03E200D0E16AE552E16E5B
:102FB000E552E7CFD9FF1200430EE66EE66A020E35
:102FC000E66E010EE66E1ADEE552E552E552E55276
:102FD0007C0EE66E920EE66E040EE66E010EE66E56
:102FE0000DDEE552E552E552E552000EE66EE66A68
:102FF000050EE66E110EE66E01DEE552E552E55273
:10300000E552000EE66EE66A060EE66E110EE66EFC
:10301000F5DDE552E552E552E5521200D9CFE6FF63
:10302000E1CFD9FF040EE12623EC0AF0540EE66E40
:1030300014EC0AF0E5523D0EE66E14EC0AF0E5528F
:1030400032DD220EE66E3BDDE552220EE66E37DD06
:10305000E552010EE66E33DDE5522BDD00DD080E94
:10306000E66EB3DEE55201011E51026E036A02C034
:1030700003F0026A1F5100010224006E000E0320BB
:10308000016E020E00C0DBFF030E01C0DBFF020E6B
:10309000DBCFE6FF030EDBCFE6FF60EC0AF0E55284
:1030A000E552200EE66E14EC0AF0E55220C1E6FF70
:1030B000BCDEE55221C1E6FFE7DEE5522C0EE66EEE
:1030C00014EC0AF0E55201012351E66EE66A88EC41
:1030D0000AF0E552E552700EE66E14EC0AF0E55285
:1030E000460EE66E14EC0AF0E552040EE15C02E2D4
:1030F000E16AE552E16EE552E7CFD9FF1200010E19
:10310000E66EE668020EE66E150EE66E77DDE552B7
:10311000E552E552E5521200D9CFE6FFE1CFD9FFE3
:10312000040EE1260101030E9E6FBDDC220EE66E49
:10313000C6DCE552240EE66EC2DCE552010EE66EF8
:10314000BEDCE552B6DC8BDCAEDC230EE66EB7DC13
:10315000E552CEDC0101466FFEDCCADC0101476F9F
:10316000FADCC6DC0101486FF6DCC2DC0101496F04
:10317000F2DCBEDC01014A6FEEDCBADC01014B6F10
:10318000EADCB6DC01014C6FE6DCB2DC01014D6F1C
:10319000E2DCAEDC0101526FDEDCAADC0101536F20
:1031A000DADCA6DC01014E6FD6DCA2DC01014F6F38
:1031B000D2DC9EDC0101506FA2DC7BDC01014951B5
:1031C00001E1F3D0475101E1F0D04A51006E016AAC
:1031D00000C001F0006A4B510024546F000E012022
:1031E000556F4C51006E016A00C001F0006A4D51EC
:1031F0000024566F000E0120576F5251006E016A75
:1032000000C001F0006A53510024586F000E0120E5
:10321000596F4E51006E016A00C001F0006A4F51B3
:1032200000245A6F000E01205B6F4C51F00BE83AFE
:103230000F0B656F23EC0AF054C1E6FF55C1E6FFA2
:1032400060EC0AF0E552E55256C1E6FF57C1E6FFD1
:1032500060EC0AF0E552E55258C1E6FF59C1E6FFBD
:1032600060EC0AF0E552E5525AC1E6FF5BC1E6FFA9
:1032700060EC0AF0E552E552020E0101655D14E1D1
:1032800052C1E6FF14EC0AF0E55253C1E6FF14EC1C
:103290000AF0E5524EC1E6FF14EC0AF0E5524FC1C8
:1032A000E6FF14EC0AF0E552010165510AE14EC156
:1032B000E6FF14EC0AF0E5524FC1E6FF14EC0AF009
:1032C000E552060E0101655D70E11F0E4D155C6F44
:1032D00058C15DF159C15EF15AC15FF15BC160F146
:1032E000430EE66E14EC0AF0E5524D0EE66E14EC59
:1032F0000AF0E552440EE66E14EC0AF0E552200E98
:10330000E66E14EC0AF0E5523D0EE66E14EC0AF09F
:10331000E5525CC1E6FF40EC0AF0E552200EE66E95
:1033200014EC0AF0E552410EE66E14EC0AF0E55298
:10333000440EE66E14EC0AF0E552440EE66E14EC10
:103340000AF0E552520EE66E14EC0AF0E5523D0E1C
:10335000E66E14EC0AF0E5525DC1E6FF5EC1E6FFE1
:1033600060EC0AF0E552E552440EE66E14EC0AF009
:10337000E552410EE66E14EC0AF0E552540EE66E8C
:1033800014EC0AF0E552410EE66E14EC0AF0E55238
:103390003D0EE66E14EC0AF0E5525FC1E6FF60C137
:1033A000E6FF60EC0AF0E552E552040EE15C02E251
:1033B000E16AE552E16EE552E7CFD9FF1200D9CFBD
:1033C000E6FFE1CFD9FFFD0EDBCFE6FFFE0EDBCF40
:1033D000E6FF070EE66E110EE66E10DCE552E552D2
:1033E000E552E552FB0EDBCFE6FFFC0EDBCFE6FF3E
:1033F00086DCE552E552F40EE66E010EE66E0BEC4D
:1034000015F0E552E5520ADE64DD00D0E552E7CF63
:04341000D9FF1200CE
:0C3414002D9E0CD02D9E35AE09D0326CE0
:10342000331E341E351EE86A3322342235222D8E97
:1034300035C02FF034C02EF033C03FF032C03EF024
:103440009E0E306E316AC0EF1BF03B7E2D6AFCECA5
:103450001BF014EC1CF02DB6A4EF1BF02DA20AD02B
:103460002DAA03D02DBEA4EF1BF02DA4B0EF1BF0AE
:10347000ADEF1BF02DAA05D02DACB0EF1BF0ADEFDA
:103480001BF02DA00AD02DA808D02DBE04D02DA44D
:1034900002D0B9EF1BF0BDEF1BF03E6A316A3B5022
:1034A000365C3D6E10E333C03FF034C02EF035C0C3
:1034B0002FF036C03CF038C033F039C034F03AC099
:1034C00035F02D3A09D038C03FF039C02EF03AC05F
:1034D0002FF03BC03CF03D6C2D9E2DBC2D8E3CC092
:1034E00030F02DB0ECEF1BF01A0E3D60ECEF1BF04E
:1034F000306A366A2DA408D0336C341E351E361E51
:10350000E86A3422352236222DAC08D03F6C2E1EBC
:103510002F1E301EE86A2E222F223022326A3D52A0
:1035200007E0363435323432333232323D2EF9D779
:1035300033503F2634502E2235502F223650302221
:1035400032C03EF02D9E30AE0BD03E6C3F1E2E1E84
:103550002F1E301EE86A3F222E222F2230222D8E6F
:1035600030A006D0D8802F322E323F323E323C2A55
:103570003CC030F0C0EF1BF02D6AFCEC1BF014ECEB
:103580001CF02DB6A4EF1BF02DA205D02DB8A4EF92
:103590001BF0ABEF1BF02DAA05D02DB0A4EF1BF054
:1035A000ABEF1BF02DB002D02DA802D0B7EF1BF06F
:1035B000316A3B503624306EE86A31227E0E305E2E
:1035C000E86A315A3E6A3F6A2E6A2F6A3A503502DB
:1035D000F4CF2FF0F3CF2EF039503502F3503F26C1
:1035E000F4502E22000E2F223A503402F3503F2680
:1035F000F4502E22000E2F2238503502F3503E2672
:10360000F4503F22000E2E222F2239503402F35064
:103610003E26F4503F22000E2E222F223A50330233
:10362000F3503E26F4503F22000E2E222F22385017
:103630003402F4503E26000E3F222E222F22395013
:103640003302F4503E26000E3F222E222F22C0EFDE
:103650001BF02C6A3AAE32EF1BF0396C3A1EE86A66
:103660003A222C1E35AE3AEF1BF0346C351EE86A58
:1036700035222C1E24EC1FF035BE4AEF1BF02CAE79
:10368000000C346C351EE86A3522306C311EE86A55
:103690003122000C2CBE41EF1BF02D88FF0C34C0F2
:1036A0003EF034503902F4CF33F0F3CF32F03550DE
:1036B0003A02F4CF35F0F3CF34F03902F350332629
:1036C000F4503422E86A35223E503A02F350332651
:1036D000F4503422E86A3522000C2D6AFCEC1BF011
:1036E0002DB677EF1BF02DA20FD02DB407D07F0E93
:1036F000356EFF0E346E336E326E25D0800E356E11
:1037000001D0356A000EF6D72DB0FBD7326A9F0E76
:103710003660EBD77E0E3664F4D79E0E365C07E03B
:10372000D8903532343233323232362AF6D72DA49D
:103730000AD0326C331E341E351EE86A332234221E
:10374000352235AEDED712007F0E366EFF0E356E97
:10375000346E336E12007F0E2DBEFF0E366E02D019
:103760007F0E366E800E356E346A336AF3D72DAE17
:1037700004D0800E366E356AF7D7366A356AF4D7CC
:103780002F502E103F103E10F8E031BEF0D72FBE64
:103790000CD030503110EBE0D8903E363F362E360C
:1037A0002F363006D8A03106F2D73150D4E1302878
:1037B000D2E03EAE11D07F0E3E1402E13FA00CD00D
:1037C0003F2AE86A2E222F2207E3D8802F322E329A
:1037D0003F32302A3028BFE03050C9E03FC033F0DC
:1037E0002EC034F02F34356E3030366E3532369E82
:1037F0002DBE368EAAEF1BF03536363602E32D8409
:103800002D7E06E12D80366A356A346A336A1200ED
:10381000362803E0D88035321200D890353202E1E4
:103820002D8212002D8612003A363B3602E32D8C93
:103830002D7E06E12D883B6A3A6A396A386A1200A1
:103840003B2803E0D8803A321200D8903A32EAE1BD
:043850002D8A1200AB
:0C385400DACFE4FFE2CFDAFFE9CFE4FFB7
:10386000EACFE4FFF6CFE4FFF7CFE4FFF5CFE4FFC4
:10387000F3CFE4FFF4CFE4FFFACFE4FF00EE2CF047
:10388000140EE80403E3EECFE4FFFBD700EE00F0F4
:103890002C0EE80403E3EECFE4FFFBD7E6529EA034
:1038A0001BD09E90D10ECF6E200ECE6E59505A1066
:1038B00003E05906000E5A5A01019E5105E08B980B
:1038C0009E079E5101E18B889F5105E08B949F07D5
:1038D0009F5101E18B8424D8E55200EE2BF02C0E91
:1038E000E80403E3E5CFEDFFFBD700EE3FF0140E55
:1038F000E80403E3E5CFEDFFFBD7E5CFFAFFE5CF23
:10390000F4FFE5CFF3FFE5CFF5FFE5CFF7FFE5CF18
:10391000F6FFE5CFEAFFE5CFE9FFE5CFDAFF1100DB
:1039200001019D0501E1F7D08E518F1156E0966B94
:10393000976B010E8E1901E18F5108E15C688E6B67
:103940008F6B7EC182F17FC183F147D0010E921946
:1039500001E193510BE15C2AFF0E5C5C06E18E6B8A
:103960008F6B7EC182F17FC183F137D09251931169
:103970001EE19007000E915B5C50016A9425006E79
:1039800095510122FF0ED8800054000E015408E228
:103990005C688E6B8F6B7EC182F17FC183F106D034
:1039A0005C50006E016A005094255C6E16D0900742
:1039B000000E915BD8809055000E91550EE392C198
:1039C00090F193C191F15C2AFF0E5C5C06E18E6B75
:1039D0008F6B7EC182F17FC183F18251831120E020
:1039E0008207000E835BD8808255000E835518E352
:1039F0008BC192F1936B346A010E356E8AC139F036
:103A00008BC13AF024EC1FF034C094F135C095F12D
:103A100092C190F193C191F18AC18CF18BC18DF16A
:103A200001018C518D115DE0010E8C1901E18D5168
:103A300008E15C6A8C6B8D6B7CC180F17DC181F18A
:103A400050D0010E921901E1935114E15C500BE04A
:103A50005C065C50000806E38C6B8D6B7CC180F1CA
:103A60007DC181F106D08C6B8D6B7CC180F17DC1F5
:103A700081F137D0925193111CE19007000E915BB8
:103A800094515C5C000E95550CE35C50026E036A29
:103A90009451025C006E95510358016E00505C6EAB
:103AA00007D05C6A8C6B8D6B7CC180F17DC181F12C
:103AB00018D09007000E915BD8809055000E91555C
:103AC00007E392C190F193C191F15C5001E05C0673
:103AD0005C50000806E38C6B8D6B7CC180F17DC16E
:103AE00081F1805181110BE08007000E815BD8804D
:103AF0008055000E815503E3010E966F976B5D5064
:103B00005E1009E05D06000E5E5AD8805D54000E1E
:083B10005E5401E35C6A12003F
:083B180014AEFF3F8B6CFF3F70
:103B2000A01AFF3F0BB5FE3F143FFE3F74B5FD3FAB
:103B30002B18FD3F7F6AFC3F2AA9FB3F73D7FA3F52
:103B400013F2F93F50FCF83F2BF6F73F5DDCF63FF0
:103B5000E6AEF53F0D71F43FD122F33F33C4F13FA0
:103B6000EC51F03F42CFEE3FEF38ED3F8195EB3F18
:103B70006ADEE93FF016E83F143FE63FD656E43FE1
:103B8000355EE23F3255E03FCD3BDE3F0612DC3F83
:103B900023DBD93FDE93D73FEF38D53F2CD4D23F3C
:103BA000C05BD03F39D6CD3F9643CB3F90A0C83FB6
:103BB0006FF0C53FEC2FC33F4E62C03F9487BD3FBF
:103BC000789CBA3F87A7B73F34A2B43F0C93B13F6C
:103BD000C976AE3F6A4DAB3FF016A83F5BD3A43F1A
:103BE000F085A13F6B2B9E3F11C79A3F9B55973F96
:103BF00051DA933F3255903F3FC68C3F772D893F36
:103C00009487853F23DB813FBA497C3F86C9743F57
:103C1000A8356D3FAF94653F0DE05D3F4F1E563FA9
:103C2000E9484E3F6666463FC9763E3F107A363FCA
:103C30003B702E3F4B59263F3F351E3FA60A163F8D
:103C4000F2D20D3F228E053F8885FA3E95D4E93E9B
:103C50008716D93E5E4BC83E1973B73EB98DA63E56
:103C60003D9B953EA69B843EE71D673E8104453EF5
:103C7000E5D0223E499D003EED9EBC3D8E06703D46
:103C8000849ECD3CADFF6CFF1AFFB5FE3DFEB4FD3A
:103C900018FD6AFCAAFBD7FAF3F9FDF8F5F7DBF695
:103CA000AFF572F423F3C2F150F0CDEE39ED94EBA1
:103CB000DEE917E83FE657E45EE255E03CDE13DC60
:103CC000DAD992D73AD5D3D25CD0D7CD42CBA0C8DF
:103CD000EEC52FC361C086BD9DBAA7B7A3B493B18B
:103CE00075AE4CAB16A8D3A485A12C9EC79A569747
:103CF000DB935690C68C2B898785DA81237E637A85
:103D00009A76C972EF6E0E6B246734633C5F3D5B3D
:103D100038572D531B4F044BE846C642A03E753A18
:103D200046361332DC2DA22965252621E41CA01875
:0A3D30005A141310CA0B8107370361
:063D3A00200EF66E100ED3
:103D4000F76E000EF86E01010900F550A76F09002B
:103D5000F550A86F03E1A76701D03DD00900F550E9
:103D6000A26F0900F550A36F0900F550A46F090078
:103D70000900F550E96E0900F550EA6E09000900E6
:103D80000900F550A56F0900F550A66F090009005C
:103D9000F6CFA9F1F7CFAAF1F8CFABF1A2C1F6FFA8
:103DA000A3C1F7FFA4C1F8FF0101A55302E1A65387
:103DB00007E00900F550EE6EA507F8E2A607F9D76F
:103DC000A9C1F6FFAAC1F7FFABC1F8FF0101A70720
:083DD000000EA85BBFD7120032
:083DD80032503702F3CF2EF048
:103DE000F4CF2FF03802F3502F26000EF420306E5F
:103DF00032503902F3503026000EF420316E32502A
:103E00003A02F350312633503702F3502F26F45044
:103E10003022000E312233503802F3503026F45055
:103E2000312233503902F350312634503702F350E7
:103E30003026F450312234503802F35031263550B8
:083E40003702F3503126120095
:083E4800316A306A100EE76ECA
:103E5000D89034363536303631363950305C3A50B9
:103E6000315805E33950305E3A50315A342AE72E42
:043E7000F0D7120075
:0C3E7400000EF36E00EE00F0030E01D80B
:103E80001200EA6002D0EE6AFCD7F350E96012003B
:043E9000EE6AFCD703
:0C3E940012EE00F022EE00F0F86A2D9C07
:103EA0009DEC1EF00BEC08F080EC11F0FBD712003B
:043EB000010000000D
:020000040030CA
:0100000000FF
:0100010032CC
:010002001EDF
:010003001FDD
:010005008872
:010006008178
:0100080003F4
:01000900C036
:01000A0002F3
:01000B008074
:01000C0003F0
:01000D0040B2
:0200000400F00A
:10000000A50100060203006409192A26003200191E
:10001000012C019001F4025802BC0320646400002A
:10002000FFF0F01AF000FFFFFFFFFFFFFFFFFFFFF1
:10003000FFFFFFFFFFFFFFFFFFFFFFFFFFFFFFFFD0
:00000001FF
